:1000000072C000009FC000009DC000009BC00000A7
:1000100099C0000097C0000095C0000093C0000088
:1000200091C000008FC000008DC000008BC0000098
:1000300089C0000087C0000085C0000083C00000A8
:1000400081C000007FC000007DC000007BC00000B8
:1000500079C0000077C0000075C0000075C40000C2
:1000600071C000003BC4000010C400006BC0000061
:1000700069C0000067C0000065C0000063C00000E8
:1000800061C000005FC000005DC000005BC00000F8
:1000900059C0000057C0000055C0000053C0000008
:1000A00051C000004FC000004DC000004BC0000018
:1000B00049C0000047C0000045C0000043C0000028
:1000C00041C000003FC000003DC000003BC0000038
:1000D00039C0000037C0000035C0000033C0000048
:1000E00031C00000960611241FBECFEFD1E2DEBF63
:1000F000CDBF00E00CBF12E0A0E0B2E0E0EDF6E121
:1001000000E00BBF02C007900D92A434B107D9F7ED
:1001100022E0A4E4B2E001C01D92A43FB207E1F7DF
:1001200010E0C3E7D0E000E005C021970109802F6F
:10013000FE014BD6C237D10780E00807B1F74ED495
:100140000C94660B5DCF80917B00877F80937B0052
:1001500080E480937C0080917A00806480937A00B0
:1001600080917A0086FDFCCF809178002091790003
:1001700090E0922B0895CF92DF92EF92FF920F932F
:100180001F93CF93DF936C017A018B01C0E0D0E025
:10019000CE15DF0589F0D8016D918D01D601ED9165
:1001A000FC910190F081E02DC6011995892B11F485
:1001B0007E0102C02196ECCFC701DF91CF911F9144
:1001C0000F91FF90EF90DF90CF900895FC01918DFB
:1001D000828D981761F0828DDF01A80FB11D5D96A9
:1001E0008C91928D9F5F9F73928F90E008958FEF17
:1001F0009FEF0895FC01918D828D981731F0828DCB
:10020000E80FF11D858D90E008958FEF9FEF089521
:10021000FC01918D228D892F90E0805C9F4F821B85
:1002200091098F739927089583E592E0F1DF21E02A
:10023000892B09F420E0822F0895FC01848DDF01D1
:10024000A80FB11DA35ABF4F2C91848D90E0019649
:100250008F739927848FA689B7892C93A089B18938
:100260008C9180648C93938D848D981306C0028842
:10027000F389E02D80818F7D80830895EF92FF9236
:100280000F931F93CF93DF93EC0181E0888F9B8DB9
:100290008C8D981305C0E889F989808185FD23C07C
:1002A000F62E0B8D10E00F5F1F4F0F731127E02EFE
:1002B0008C8DE8120BC00FB607FCFACFE889F989DC
:1002C000808185FFF5CFCE01B8DFF2CF8B8DFE01A7
:1002D000E80FF11DE35AFF4FF0820B8FEA89FB898B
:1002E0008081806207C0EE89FF896083E889F9898F
:1002F00080818064808381E090E0DF91CF911F91C5
:100300000F91FF90EF900895CF93DF93EC01888DCC
:100310008823C1F0EA89FB89808185FD05C0A88911
:10032000B9898C9186FD0EC00FB607FCF5CF808190
:1003300085FFF2CFA889B9898C9185FFEDCFCE01D9
:100340007CDFE8CFDF91CF91089580E090E0892BAA
:1003500019F06ADF811125C080E090E0892B41F01F
:1003600080E090E0892B21F00E94000081111CC0E8
:1003700080E090E0892B41F080E090E0892B21F033
:100380000E940000811113C080E090E0892BA1F051
:1003900080E090E0892B81F00E94000081110AC06A
:1003A00008950E940000D8CF0E940000E1CF0E9473
:1003B0000000EACF0C94000008953FB7F8948091B4
:1003C000490290914A02A0914B02B0914C0226B58D
:1003D000A89B05C02F3F19F00196A11DB11D3FBF7D
:1003E000BA2FA92F982F8827820F911DA11DB11D0B
:1003F000BC01CD0142E0660F771F881F991F4A9507
:10040000D1F708952FB7F894609145027091460294
:1004100080914702909148022FBF08950F931F9338
:10042000F1DF60935B0270935C0280935D029093B6
:100430005E02E0915302F09154020680F781E02DB4
:1004400083E592E0199597FF1EC0DCDF00915B0207
:1004500010915C0220915D0230915E02DC01CB01C3
:10046000801B910BA20BB30B009157021091580205
:100470002091590230915A0280179107A207B307C1
:10048000C0F28FEF9FEF1F910F910895009761F0D9
:10049000FC0101900020E9F73197AF01481B590B8F
:1004A000BC0183E592E067CE80E090E008958F92F2
:1004B0009F92AF92BF920F931F93CF93DF93CDB7CD
:1004C000DEB7A1970FB6F894DEBF0FBECDBF19A25D
:1004D000423008F44AE08E010F5D1F4F842E912CAC
:1004E000A12CB12CA50194014ED4E62FB901CA016B
:1004F00001501109EA3014F4E05D01C0E95CD80153
:10050000EC93232B242B252B69F7C801BFDFA19681
:100510000FB6F894DEBF0FBECDBFDF91CF911F9114
:100520000F91BF90AF909F908F9008954F925F92E0
:100530006F927F928F929F92AF92BF92CF92DF92F3
:10054000EF92FF926B017C01B42E9B01AC0147D569
:10055000882319F086E192E024C026013701E8944F
:1005600077F82FEF3FEF4FE75FE7C301B20137D5D1
:1005700081110CC02FEF3FEF4FE75FE7C301B201DE
:1005800076D718161CF48AE192E00BC02FEF3FEFEC
:100590004FE75FE4C701B6011ED518167CF48EE163
:1005A00092E0FF90EF90DF90CF90BF90AF909F9040
:1005B0008F907F906F905F904F9068CF2FEF3FEFBD
:1005C0004FE75FECC701B60152D787FDE8CF20E0C7
:1005D00030E0A901C701B6014AD787FF11C0E091F9
:1005E0005302F09154020190F081E02D6DE283E519
:1005F00092E019954C01F7FAF094F7F8F09402C0E4
:10060000812C912CA12C60E070E080E09FE3AB1482
:1006100039F020E030E040E251E444D4A394F7CF35
:100620009B01AC01C701B601D9D32B013C01A7D472
:100630006B017C0120D79B01AC01C301B201CDD37A
:100640002B013C014AE0C701B60131DF7C01E80C17
:10065000F91CBB2029F082E292E018DFE80EF91EB7
:10066000DB2CDD20F9F020E030E040E251E4C30172
:10067000B20162D72B013C0182D44B01A12CB12CD9
:100680004AE0C501B40113DFE80EF91EC501B4014B
:10069000F2D69B01AC01C301B2019FD32B013C01F7
:1006A000DA94DFCFC701FF90EF90DF90CF90BF903B
:1006B000AF909F908F907F906F905F904F90089534
:1006C0008F929F92AF92BF92CF92DF92EF92FF9262
:1006D000CF93DF9338DD71DE6B017C0192E0892ED0
:1006E000912CA12CB12C69DEDC01CB018C199D0968
:1006F000AE09BF09883E9340A105B105A0F328EEDD
:10070000C20E23E0D21EE11CF11C8A9489288A289B
:100710008B2829F0812C912C54018394E4CF13DD94
:10072000EC0184E292E0B2DE6E01E12CF12C4AE0B1
:10073000C701B601BCDEC701B6019DD620E030E09E
:1007400040EA50E4F9D620E030E040E85AE3F4D63D
:1007500023E333E343E35FE341D36B017C0189E2AD
:1007600092E094DE42E0C701B601E0DE8DE292E065
:100770008DDE20E030E040EE51E4C701B601DCD66A
:1007800020E030E040E85EE3D7D642E0CFDE81E310
:1007900092E07CDE80914D0290914E028F3F910558
:1007A00021F4D0934E02C0934D02CE01DF91CF9140
:1007B000FF90EF90DF90CF90BF90AF909F908F9081
:1007C000089522D60F931F93CF93DF93EC01888176
:1007D0009981009729F02A813B812617370780F4F9
:1007E0008B016F5F7F4F2CD5009761F099838883D1
:1007F0001B830A832C813D81232B11F4FC01108281
:1008000081E001C080E0DF91CF911F910F910895A9
:10081000EF92FF920F931F93CF93DF93EC01198216
:1008200018821B821A821D821C826115710531F1AA
:100830008B01FB0101900020E9F731977F01E61A57
:10084000F70AB701BFDF2881398181110CC021155A
:10085000310511F0C9015CD4198218821D821C82F5
:100860001B821A820BC0FD82EC82B801C901DF91A4
:10087000CF911F910F91FF90EF90E4C5DF91CF9141
:100880001F910F91FF90EF9008951F920F920FB656
:100890000F9211240BB60F922F933F934F935F93B8
:1008A0006F937F938F939F93AF93BF93EF93FF9338
:1008B00083E592E0C2DCFF91EF91BF91AF919F91F0
:1008C0008F917F916F915F914F913F912F910F90F9
:1008D0000BBE0F900FBE0F901F9018951F920F9296
:1008E0000FB60F9211240BB60F922F938F939F93F5
:1008F000EF93FF93E0916302F09164028081E091B5
:100900006902F0916A0282FD12C0908180916C02AE
:100910008F5F8F7320916D02821751F0E0916C020E
:10092000F0E0ED5AFD4F958F80936C0201C08081FD
:10093000FF91EF919F918F912F910F900BBE0F9090
:100940000FBE0F901F9018951F920F920FB60F9227
:1009500011242F933F938F939F93AF93BF938091D5
:10096000450290914602A0914702B0914802309111
:10097000440223E0230F2D3720F40196A11DB11D61
:1009800005C026E8230F0296A11DB11D2093440245
:100990008093450290934602A0934702B093480289
:1009A0008091490290914A02A0914B02B0914C0271
:1009B0000196A11DB11D8093490290934A02A09314
:1009C0004B02B0934C02BF91AF919F918F913F9199
:1009D0002F910F900FBE0F901F901895CF93DF931C
:1009E000CDB7DEB72D970FB6F894DEBF0FBECDBFE3
:1009F000789484B5826084BD84B5816084BD85B5FA
:100A0000826085BD85B5816085BD80916E00816005
:100A100080936E00109281008091810082608093AB
:100A200081008091810081608093810080918000AD
:100A30008160809380008091B10084608093B100D8
:100A40008091B00081608093B000809191008260BD
:100A500080939100809191008160809391008091BA
:100A600090008160809390008091A10082608093CB
:100A7000A1008091A10081608093A1008091A000DD
:100A800081608093A0008091210182608093210188
:100A900080912101816080932101809120018160FA
:100AA0008093200180917A00846080937A00809105
:100AB0007A00826080937A0080917A0081608093CE
:100AC0007A0080917A00806880937A001092C10049
:100AD000E0916302F091640282E08083E0915F0222
:100AE000F09160021082E0916102F091620287E66B
:100AF000808310926B02E0916702F091680286E0B9
:100B00008083E0916502F09166028081806180833C
:100B1000E0916502F0916602808188608083E091B7
:100B20006502F0916602808180688083E0916502B1
:100B3000F091660280818F7D80838CED90E0B0D54E
:100B400080934D028DED90E0ABD580934E025ADC40
:100B500000914F02109150022091510230915202A7
:100B6000DC01CB01801B910BA20BB30B853F9140A5
:100B7000A105B10508F440C045DC60934F027093B5
:100B80005002809351029093520260914D027091F5
:100B90004E0280E090E06FD44B015C0191DDBC011E
:100BA00080E090E068D46B017C0120E030E040ED13
:100BB00051E4C501B401C0D4DDD1072E000C880B6F
:100BC000990B5BD4A701960106D218160CF4A7C0A6
:100BD00020E030E04CE652ECC501B401ADD4CAD1FE
:100BE000072E000C880B990B48D49B01AC01C70160
:100BF000B6013DD487FD93C083E592E009DB892BE4
:100C000009F48BC063E372E0CE01079601DE06DCD7
:100C100097FD1CC08A309105C9F089831A820B8523
:100C20001C850F5F1F4FB801CE010796CBDD8823CF
:100C300071F32F8138858B859C85BE016F5F7F4F57
:100C4000820F931FFFD31C870B87E1CF0F8118857D
:100C50000115110579F464E372E0CE010196D8DD47
:100C60004D815E818B859C85E980FA80841795078C
:100C700068F418C0F8018081882369F3082E000CFD
:100C8000990BC6D3F80181938F01F4CF8F8198859A
:100C9000009741F0E114F10429F0B701DAD311E033
:100CA000892B09F010E0C70133D21123E9F008DDE8
:100CB00080934D0290934E02682F8CED90E06D87EB
:100CC000EFD46D85681719F08CED90E0F1D4609148
:100CD0004E028DED90E06D87E3D46D856817D1F0FD
:100CE0008DED90E0E5D416C08B859C85892B91F025
:100CF00068E372E08F8198859CD3892B59F46091C9
:100D00004D0270914E0280E090E04AE0D0DB81E33A
:100D100092E0BCDB8F819885FBD117DB18CF8EE387
:100D200092E0B4DB81E392E0B1DB66CFE3E5F2E091
:100D30001382128288EE93E0A0E0B0E08483958372
:100D4000A683B7838AE092E09183808385EC90E06C
:100D50009587848784EC90E09787868780EC90E085
:100D6000918B808B81EC90E0938B828B82EC90E076
:100D7000958B848B86EC90E0978B868B118E128EF0
:100D8000138E148E0895A1E21A2EAA1BBB1BFD011F
:100D90000DC0AA1FBB1FEE1FFF1FA217B307E4075A
:100DA000F50720F0A21BB30BE40BF50B661F771FB2
:100DB000881F991F1A9469F7609570958095909592
:100DC0009B01AC01BD01CF010895EE0FFF1F881FED
:100DD0008BBF0790F691E02D19945058BB27AA2796
:100DE0000ED024C415D430F01AD420F031F49F3F33
:100DF00011F41EF40AC40EF4E095E7FB00C4E92FD9
:100E000026D480F3BA17620773078407950718F092
:100E100071F49EF53EC40EF4E0950B2EBA2FA02D72
:100E20000B01B90190010C01CA01A0011124FF2797
:100E3000591B99F0593F50F4503E68F11A16F04092
:100E4000A22F232F342F4427585FF3CF4695379591
:100E50002795A795F0405395C9F77EF41F16BA0B56
:100E6000620B730B840BBAF09150A1F0FF0FBB1F04
:100E7000661F771F881FC2F70EC0BA0F621F731F4D
:100E8000841F48F4879577956795B795F7959E3FAA
:100E900008F0B3CF9395880F08F09927EE0F979538
:100EA000879508950CD0C2C3BAD340F0B1D330F0C7
:100EB00021F45F3F19F0A3C35111ECC3A6C3C7D3FC
:100EC00098F39923C9F35523B1F3951B550BBB2711
:100ED000AA2762177307840738F09F5F5F4F220FBE
:100EE000331F441FAA1FA9F333D00E2E3AF0E0E8B7
:100EF00030D091505040E695001CCAF729D0FE2F03
:100F000027D0660F771F881FBB1F26173707480794
:100F1000AB07B0E809F0BB0B802DBF01FF2793584A
:100F20005F4F2AF09E3F510568F069C3B3C35F3F2E
:100F3000ECF3983EDCF3869577956795B795F79532
:100F40009F5FC9F7880F911D9695879597F908952A
:100F5000E1E0660F771F881FBB1F621773078407C6
:100F6000BA0720F0621B730B840BBA0BEE1F88F7D5
:100F7000E095089504D06894B1118CC308956FD39F
:100F800088F09F5790F0B92F9927B751A0F0D1F072
:100F9000660F771F881F991F1AF0BA95C9F712C0FC
:100FA000B13081F076D3B1E0089573C3672F782F05
:100FB0008827B85F39F0B93FCCF386957795679568
:100FC000B395D9F73EF490958095709561957F4FD4
:100FD0008F4F9F4F08958CD208F48FEF089588D2D9
:100FE000880B990B0895CF93DF938230910510F40D
:100FF00082E090E0E091F202F091F30220E030E034
:10100000C0E0D0E0309711F1408151814817590775
:10101000C0F04817590761F482819381209719F035
:101020009B838A832BC09093F3028093F20226C0A5
:101030002115310519F04217530718F49A01BE0122
:10104000DF01EF010280F381E02DDCCF21153105B6
:1010500009F1281B390B2430310590F412968D913B
:101060009C9113976115710521F0FB019383828395
:1010700004C09093F3028093F202FD01329644C0C3
:10108000FD01E20FF31F81939193225031092D93BB
:101090003C933AC02091F0023091F102232B41F4AD
:1010A00020910202309103023093F1022093F0026A
:1010B00020910002309101022115310541F42DB734
:1010C0003EB74091040250910502241B350BE0917C
:1010D000F002F091F102E217F307A0F42E1B3F0B90
:1010E0002817390778F0AC014E5F5F4F241735079A
:1010F00048F04E0F5F1F5093F1024093F00281932E
:10110000919302C0E0E0F0E0CF01DF91CF9108952C
:101110000F931F93CF93DF93009709F48CC0FC01CA
:101120003297138212820091F2021091F30201159C
:10113000110581F420813181820F931F2091F002EB
:101140003091F1022817390779F5F093F102E09315
:10115000F00271C0D80140E050E0AE17BF0750F474
:1011600012962D913C911397AD012115310509F18E
:10117000D901F3CF9D01DA0133832283608171812C
:10118000860F971F8217930769F4EC012881398134
:10119000260F371F2E5F3F4F318320838A819B812B
:1011A00093838283452B29F4F093F302E093F202B8
:1011B00042C01396FC93EE931297ED014991599119
:1011C0009E01240F351FE217F30771F4808191818E
:1011D000840F951F029611969C938E938281938122
:1011E00013969C938E931297E0E0F0E0D80112964C
:1011F0008D919C911397009719F0F8018C01F6CF0F
:101200008D919C9198012E5F3F4F820F931F2091EB
:10121000F0023091F1022817390769F4309729F468
:101220001092F3021092F20202C013821282109303
:10123000F1020093F002DF91CF911F910F91089579
:101240006F927F928F929F92AF92BF92CF92DF92D6
:10125000EF92FF920F931F93CF93DF93EC010097D0
:1012600081F4CB01DF91CF911F910F91FF90EF900F
:10127000DF90CF90BF90AF909F908F907F906F90B6
:10128000B2CEFC01E60FF71F9C0122503109E21794
:10129000F30708F4A8C0D9010D911C911197061706
:1012A0001707A8F00530110508F49BC0C801049782
:1012B0008617970708F495C002501109061B170BF3
:1012C000019311936D937C93CF0122DF8AC05B0160
:1012D000A01AB10A4C01800E911EA091F202B091A9
:1012E000F30240E050E0E12CF12C109709F44AC0E1
:1012F000A815B905D1F56D907C901197630182E036
:10130000C80ED11CCA14DB0480F1A3014A195B0981
:101310006A0182E0C80ED11C1296BC9012971396F7
:10132000AC91B5E0CB16D10440F0B282A3835183D7
:101330004083D9016D937C930AC00E5F1F4FC30198
:10134000800F911FF90191838083EB2DFA2FE11417
:10135000F10431F0D7011396FC93EE93129741C03C
:10136000F093F302E093F2023CC08D919C911197AF
:101370004817590708F4AC017D0112960D90BC91F5
:10138000A02DB3CF8091F0029091F10288159905BC
:10139000E1F446175707C8F48091000290910102CA
:1013A000009741F48DB79EB7409104025091050219
:1013B000841B950BE817F907B0F4F093F102E09362
:1013C000F002F901718360830CC0CB010CDE7C015B
:1013D000009749F0A801BE0123D0CE0199DEC701D4
:1013E00004C0CE0102C080E090E0DF91CF911F9158
:1013F0000F91FF90EF90DF90CF90BF90AF909F90B4
:101400008F907F906F90089581E090E0F8945EC196
:101410009111089581568A5108F480528558089593
:10142000FB01DC0102C001900D9241505040D8F701
:101430000895FB01DC018D91019080190110D9F311
:10144000990B0895FB01DC0101900D920020E1F75A
:101450000895FB01DC014150504030F08D91019026
:10146000801919F40020B9F7881B990B089540D012
:1014700008F481E00895E89409C097FB3EF4909544
:101480008095709561957F4F8F4F9F4F9923A9F05D
:10149000F92F96E9BB279395F695879577956795EC
:1014A000B795F111F8CFFAF4BB0F11F460FF1BC030
:1014B0006F5F7F4F8F4F9F4F16C0882311F096E9C3
:1014C00011C0772321F09EE8872F762F05C0662371
:1014D00071F096E8862F70E060E02AF09A95660F2A
:1014E000771F881FDAF7880F9695879597F90895E3
:1014F000990F0008550FAA0BE0E8FEEF1616170625
:10150000E807F907C0F012161306E407F50798F08C
:10151000621B730B840B950B39F40A2661F0232BA5
:10152000242B252B21F408950A2609F4A140A69521
:101530008FEF811D811D08950BD078C069D028F0F0
:101540006ED018F0952309F05AC05FC01124A2C0D4
:101550007ED0A0F3959FD1F3950F50E0551F629F69
:10156000F001729FBB27F00DB11D639FAA27F00DFC
:10157000B11DAA1F649F6627B00DA11D661F829F23
:101580002227B00DA11D621F739FB00DA11D621F08
:10159000839FA00D611D221F749F3327A00D611D25
:1015A000231F849F600D211D822F762F6A2F112407
:1015B0009F5750408AF0E1F088234AF0EE0FFF1F5A
:1015C000BB1F661F771F881F91505040A9F79E3F91
:1015D000510570F014C05EC05F3FECF3983EDCF341
:1015E000869577956795B795F795E7959F5FC1F7CE
:1015F000FE2B880F911D9695879597F9089597F979
:101600009F6780E870E060E008959FEF80EC0895A8
:1016100000240A94161617061806090608950024D1
:101620000A9412161306140605060895092E03944B
:10163000000C11F4882352F0BB0F40F4BF2B11F4BF
:1016400060FF04C06F5F7F4F8F4F9F4F089557FD1E
:101650009058440F551F59F05F3F71F04795880F20
:1016600097FB991F61F09F3F79F0879508951216B7
:1016700013061406551FF2CF4695F1DF08C0161663
:1016800017061806991FF1CF869571056105089414
:101690000895E894BB2766277727CB0197F908952B
:1016A000F999FECF92BD81BDF89A992780B508952A
:1016B000262FF999FECF1FBA92BD81BD20BD0FB66E
:1016C000F894FA9AF99A0FBE01960895F894FFCF0C
:1016D0000000F4028000000000003E01BB00080191
:1016E000E600FA0084016E616E00696E66006F7636
:1016F00066002E00414D503A0009563A0009413A21
:10170000000D0A0053455400524541440D00545207
:04171000495000003C
:00000001FF
